:020000040000FA
:100000008501860183162D28B4298207463443349E
:10001000203430342E343534313400344D344834C7
:100020007A34003447344134543445342034543421
:1000300049344D340034453420343134323435348D
:1000400020346D345334003445342034313420347A
:1000500053346534633420340034103085000F305D
:100060008600A730810040308B0001308C00831265
:1000700007309F00003090001C22803003220030A7
:10008000EB21203084000B30FC218001040A840025
:100090007F3C031843280430AF003D30840000301B
:1000A0004222C030BE053522F9213E158B173E1D78
:1000B0008D283E1B702806080E39B5000639063A11
:1000C000031D6528A0215E216C28B51869286D21C3
:1000D0006C2835196C285E21B5197C21B51D8E213F
:1000E000BE1E79280230AF00BE153D3084000030BE
:1000F0004222DA20BD30BE1B17308F00CC30BE1B31
:10010000C4308E008101F401F3011030BE1B0230B7
:10011000F5001014831685158312C5203E1E942801
:10012000BD0AC2203522A828361EB9283E098039CA
:10013000BE13BE04803003220C30EB21C0300322FA
:100140001530BE1F1E30EB21061CA428B601F92174
:10015000F601A001A101A201A301101083168511CF
:100160008312851585110000010822020319B128A8
:100170007A28BB2057280B1D08000B11F40A03191D
:10018000F30A0800C5300322FE2837308400000837
:10019000B300840300020008840A80000318D828F2
:1001A0003308013C0318D8283308093C3E16031CC9
:1001B0003E1208003E10A01FDF283E14A02114218B
:1001C000243084000730AF0080300322000806226C
:1001D00005302F02A53003190622840AAF0BE6284A
:1001E000C03003220230AF0000080622840AAF0BA1
:1001F000F4283E18A0210830EB213E103C300622A6
:100200003E133D080A3C03193E17031CBD01303064
:100210003D073E1B443006225230B5194E303E1B7E
:10022000203006223E11080058212030B00023293A
:10023000532103300007B300B31D2029783E80000E
:10024000840AAF0B1929200DA30DA20DA10DA00D3D
:10025000AC0DAB0DAA0DA90DA80DA70DA60DA50DF2
:10026000A40DB00B1829BE105321000803193C2916
:10027000303E8000BE144229BE1838290408B00060
:1002800020308000840A08302F020319BE14AF0BFF
:1002900035292030BE1BAC003E1C0800300884000D
:1002A0002D3080000800243084000930AF000800A1
:1002B00053218001840AAF0B592908003C08A30789
:1002C0003B0803183B0FA2073A0803183A0FA1078F
:1002D00039080318390FA00708003C08A3023B089F
:1002E000031C3B0FA2023A08031C3A0FA102390873
:1002F000031C390FA0020800B801BF1BB803400857
:10030000A3073F0803183F0FA20738080318380F48
:10031000A10738080318380FA0070800B801BF1B51
:10032000B8034008A3023F08031C3F0FA20238088D
:10033000031C380FA1023808031C380FA002080064
:10034000203084008009840A8009840A8009840A94
:100350008009800F08008403800F08008403800F49
:1003600008008403800A0800F0000308F1008312EB
:10037000F50BDB298316851183121010BB2073083F
:10038000A0007408A1000108A200A301A303851521
:1003900085110000010822020319C6290B11BE1F96
:1003A000DA290330AF000310A30DA20DA10DA00D9B
:1003B000AF0BD3293E150C10360A361EB6000618B0
:1003C000B601760FF600203C0319BE1671088300B3
:1003D000F00E700E0900B1000520FF390319080066
:1003E0000622310AEB291030AE000522AE0BF529AA
:1003F0000800013003220830AE0003011822AE0BC2
:10040000FD29080080300510072A20300514B200AD
:100410000F3086053208F039860413220F30860526
:10042000320EF0398604CE300515162A000005116B
:10043000013E031D182A08002D222D222D220F30E7
:100440008605203086041322283003220830032238
:10045000F921063003220C30032A051005110F3054
:100460008605303086041322FB293E1B0800BE118E
:100470000430AF00393084000310BD0D3D0DBD0CBC
:10048000043E422A83169B008312BE195122652224
:10049000800083169B0A8312840AAF0B452ABE1183
:1004A0000800652200020319642A00088C138316D1
:1004B0009A001C158B1355309D00AA309D009C148A
:1004C0008B1783128C1F622A080083161C141A08CB
:0404D000831208008B
:02400E00623F0F
:104200000A0040000500DC0000000600F100580034
:1042100000004A00FF003800000089005400400000
:1042200000009800960080000000A3004400E00019
:10423000000042001D00C80000009C0053008800E0
:104240000000980096008000000098009600800012
:084250000000980096008000B8
:00000001FF
